{
  "_format": "hh-sol-artifact-1",
  "contractName": "MetaPixelNFT",
  "sourceName": "contracts/MetaToken.sol",
  "abi": [
    {
      "inputs": [],
      "stateMutability": "nonpayable",
      "type": "constructor"
    },
    {
      "inputs": [],
      "name": "ApprovalCallerNotOwnerNorApproved",
      "type": "error"
    },
    {
      "inputs": [],
      "name": "ApprovalQueryForNonexistentToken",
      "type": "error"
    },
    {
      "inputs": [],
      "name": "BalanceQueryForZeroAddress",
      "type": "error"
    },
    {
      "inputs": [],
      "name": "MintERC2309QuantityExceedsLimit",
      "type": "error"
    },
    {
      "inputs": [],
      "name": "MintToZeroAddress",
      "type": "error"
    },
    {
      "inputs": [],
      "name": "MintZeroQuantity",
      "type": "error"
    },
    {
      "inputs": [],
      "name": "NotCompatibleWithSpotMints",
      "type": "error"
    },
    {
      "inputs": [
        {
          "internalType": "address",
          "name": "owner",
          "type": "address"
        }
      ],
      "name": "OwnableInvalidOwner",
      "type": "error"
    },
    {
      "inputs": [
        {
          "internalType": "address",
          "name": "account",
          "type": "address"
        }
      ],
      "name": "OwnableUnauthorizedAccount",
      "type": "error"
    },
    {
      "inputs": [],
      "name": "OwnerQueryForNonexistentToken",
      "type": "error"
    },
    {
      "inputs": [],
      "name": "OwnershipNotInitializedForExtraData",
      "type": "error"
    },
    {
      "inputs": [],
      "name": "SequentialMintExceedsLimit",
      "type": "error"
    },
    {
      "inputs": [],
      "name": "SequentialUpToTooSmall",
      "type": "error"
    },
    {
      "inputs": [],
      "name": "SpotMintTokenIdTooSmall",
      "type": "error"
    },
    {
      "inputs": [],
      "name": "TokenAlreadyExists",
      "type": "error"
    },
    {
      "inputs": [],
      "name": "TransferCallerNotOwnerNorApproved",
      "type": "error"
    },
    {
      "inputs": [],
      "name": "TransferFromIncorrectOwner",
      "type": "error"
    },
    {
      "inputs": [],
      "name": "TransferToNonERC721ReceiverImplementer",
      "type": "error"
    },
    {
      "inputs": [],
      "name": "TransferToZeroAddress",
      "type": "error"
    },
    {
      "inputs": [],
      "name": "URIQueryForNonexistentToken",
      "type": "error"
    },
    {
      "anonymous": false,
      "inputs": [
        {
          "indexed": true,
          "internalType": "address",
          "name": "owner",
          "type": "address"
        },
        {
          "indexed": true,
          "internalType": "address",
          "name": "approved",
          "type": "address"
        },
        {
          "indexed": true,
          "internalType": "uint256",
          "name": "tokenId",
          "type": "uint256"
        }
      ],
      "name": "Approval",
      "type": "event"
    },
    {
      "anonymous": false,
      "inputs": [
        {
          "indexed": true,
          "internalType": "address",
          "name": "owner",
          "type": "address"
        },
        {
          "indexed": true,
          "internalType": "address",
          "name": "operator",
          "type": "address"
        },
        {
          "indexed": false,
          "internalType": "bool",
          "name": "approved",
          "type": "bool"
        }
      ],
      "name": "ApprovalForAll",
      "type": "event"
    },
    {
      "anonymous": false,
      "inputs": [
        {
          "indexed": true,
          "internalType": "uint256",
          "name": "fromTokenId",
          "type": "uint256"
        },
        {
          "indexed": false,
          "internalType": "uint256",
          "name": "toTokenId",
          "type": "uint256"
        },
        {
          "indexed": true,
          "internalType": "address",
          "name": "from",
          "type": "address"
        },
        {
          "indexed": true,
          "internalType": "address",
          "name": "to",
          "type": "address"
        }
      ],
      "name": "ConsecutiveTransfer",
      "type": "event"
    },
    {
      "anonymous": false,
      "inputs": [
        {
          "indexed": true,
          "internalType": "address",
          "name": "previousOwner",
          "type": "address"
        },
        {
          "indexed": true,
          "internalType": "address",
          "name": "newOwner",
          "type": "address"
        }
      ],
      "name": "OwnershipTransferred",
      "type": "event"
    },
    {
      "anonymous": false,
      "inputs": [
        {
          "indexed": true,
          "internalType": "address",
          "name": "from",
          "type": "address"
        },
        {
          "indexed": true,
          "internalType": "address",
          "name": "to",
          "type": "address"
        },
        {
          "indexed": true,
          "internalType": "uint256",
          "name": "tokenId",
          "type": "uint256"
        }
      ],
      "name": "Transfer",
      "type": "event"
    },
    {
      "inputs": [
        {
          "internalType": "address",
          "name": "to",
          "type": "address"
        },
        {
          "internalType": "uint256",
          "name": "tokenId",
          "type": "uint256"
        }
      ],
      "name": "approve",
      "outputs": [],
      "stateMutability": "payable",
      "type": "function"
    },
    {
      "inputs": [
        {
          "internalType": "address",
          "name": "owner",
          "type": "address"
        }
      ],
      "name": "balanceOf",
      "outputs": [
        {
          "internalType": "uint256",
          "name": "",
          "type": "uint256"
        }
      ],
      "stateMutability": "view",
      "type": "function"
    },
    {
      "inputs": [
        {
          "internalType": "uint256",
          "name": "tokenId",
          "type": "uint256"
        }
      ],
      "name": "getApproved",
      "outputs": [
        {
          "internalType": "address",
          "name": "",
          "type": "address"
        }
      ],
      "stateMutability": "view",
      "type": "function"
    },
    {
      "inputs": [
        {
          "internalType": "address",
          "name": "owner",
          "type": "address"
        },
        {
          "internalType": "address",
          "name": "operator",
          "type": "address"
        }
      ],
      "name": "isApprovedForAll",
      "outputs": [
        {
          "internalType": "bool",
          "name": "",
          "type": "bool"
        }
      ],
      "stateMutability": "view",
      "type": "function"
    },
    {
      "inputs": [
        {
          "internalType": "string[]",
          "name": "_urls",
          "type": "string[]"
        },
        {
          "internalType": "string[]",
          "name": "_prompts",
          "type": "string[]"
        }
      ],
      "name": "mintNft",
      "outputs": [],
      "stateMutability": "nonpayable",
      "type": "function"
    },
    {
      "inputs": [],
      "name": "name",
      "outputs": [
        {
          "internalType": "string",
          "name": "",
          "type": "string"
        }
      ],
      "stateMutability": "view",
      "type": "function"
    },
    {
      "inputs": [],
      "name": "owner",
      "outputs": [
        {
          "internalType": "address",
          "name": "",
          "type": "address"
        }
      ],
      "stateMutability": "view",
      "type": "function"
    },
    {
      "inputs": [
        {
          "internalType": "uint256",
          "name": "tokenId",
          "type": "uint256"
        }
      ],
      "name": "ownerOf",
      "outputs": [
        {
          "internalType": "address",
          "name": "",
          "type": "address"
        }
      ],
      "stateMutability": "view",
      "type": "function"
    },
    {
      "inputs": [
        {
          "internalType": "uint256",
          "name": "_id",
          "type": "uint256"
        }
      ],
      "name": "promptDescription",
      "outputs": [
        {
          "internalType": "string",
          "name": "",
          "type": "string"
        }
      ],
      "stateMutability": "view",
      "type": "function"
    },
    {
      "inputs": [],
      "name": "renounceOwnership",
      "outputs": [],
      "stateMutability": "nonpayable",
      "type": "function"
    },
    {
      "inputs": [
        {
          "internalType": "address",
          "name": "from",
          "type": "address"
        },
        {
          "internalType": "address",
          "name": "to",
          "type": "address"
        },
        {
          "internalType": "uint256",
          "name": "tokenId",
          "type": "uint256"
        }
      ],
      "name": "safeTransferFrom",
      "outputs": [],
      "stateMutability": "payable",
      "type": "function"
    },
    {
      "inputs": [
        {
          "internalType": "address",
          "name": "from",
          "type": "address"
        },
        {
          "internalType": "address",
          "name": "to",
          "type": "address"
        },
        {
          "internalType": "uint256",
          "name": "tokenId",
          "type": "uint256"
        },
        {
          "internalType": "bytes",
          "name": "_data",
          "type": "bytes"
        }
      ],
      "name": "safeTransferFrom",
      "outputs": [],
      "stateMutability": "payable",
      "type": "function"
    },
    {
      "inputs": [
        {
          "internalType": "address",
          "name": "operator",
          "type": "address"
        },
        {
          "internalType": "bool",
          "name": "approved",
          "type": "bool"
        }
      ],
      "name": "setApprovalForAll",
      "outputs": [],
      "stateMutability": "nonpayable",
      "type": "function"
    },
    {
      "inputs": [
        {
          "internalType": "bytes4",
          "name": "interfaceId",
          "type": "bytes4"
        }
      ],
      "name": "supportsInterface",
      "outputs": [
        {
          "internalType": "bool",
          "name": "",
          "type": "bool"
        }
      ],
      "stateMutability": "view",
      "type": "function"
    },
    {
      "inputs": [],
      "name": "symbol",
      "outputs": [
        {
          "internalType": "string",
          "name": "",
          "type": "string"
        }
      ],
      "stateMutability": "view",
      "type": "function"
    },
    {
      "inputs": [
        {
          "internalType": "uint256",
          "name": "tokenId",
          "type": "uint256"
        }
      ],
      "name": "tokenURI",
      "outputs": [
        {
          "internalType": "string",
          "name": "",
          "type": "string"
        }
      ],
      "stateMutability": "view",
      "type": "function"
    },
    {
      "inputs": [],
      "name": "totalSupply",
      "outputs": [
        {
          "internalType": "uint256",
          "name": "result",
          "type": "uint256"
        }
      ],
      "stateMutability": "view",
      "type": "function"
    },
    {
      "inputs": [
        {
          "internalType": "address",
          "name": "from",
          "type": "address"
        },
        {
          "internalType": "address",
          "name": "to",
          "type": "address"
        },
        {
          "internalType": "uint256",
          "name": "tokenId",
          "type": "uint256"
        }
      ],
      "name": "transferFrom",
      "outputs": [],
      "stateMutability": "payable",
      "type": "function"
    },
    {
      "inputs": [
        {
          "internalType": "address",
          "name": "newOwner",
          "type": "address"
        }
      ],
      "name": "transferOwnership",
      "outputs": [],
      "stateMutability": "nonpayable",
      "type": "function"
    },
    {
      "inputs": [
        {
          "internalType": "uint256",
          "name": "_id",
          "type": "uint256"
        }
      ],
      "name": "urlDescription",
      "outputs": [
        {
          "internalType": "string",
          "name": "",
          "type": "string"
        }
      ],
      "stateMutability": "view",
      "type": "function"
    }
  ],
  "bytecode": "0x60806040523480156200001157600080fd5b50336040518060400160405280600b81526020017f4d65746120506978656c730000000000000000000000000000000000000000008152506040518060400160405280600381526020017f4d505800000000000000000000000000000000000000000000000000000000008152508160029081620000909190620004ff565b508060039081620000a29190620004ff565b50620000b36200018860201b60201c565b600081905550620000c96200018860201b60201c565b620000d96200018d60201b60201c565b1015620000f957620000f863fed8210f60e01b620001b560201b60201c565b5b5050600073ffffffffffffffffffffffffffffffffffffffff168173ffffffffffffffffffffffffffffffffffffffff1603620001705760006040517f1e4fbdf70000000000000000000000000000000000000000000000000000000081526004016200016791906200062b565b60405180910390fd5b6200018181620001bf60201b60201c565b5062000648565b600090565b60007fffffffffffffffffffffffffffffffffffffffffffffffffffffffffffffffff905090565b8060005260046000fd5b6000600960009054906101000a900473ffffffffffffffffffffffffffffffffffffffff16905081600960006101000a81548173ffffffffffffffffffffffffffffffffffffffff021916908373ffffffffffffffffffffffffffffffffffffffff1602179055508173ffffffffffffffffffffffffffffffffffffffff168173ffffffffffffffffffffffffffffffffffffffff167f8be0079c531659141344cd1fd0a4f28419497f9722a3daafe3b4186f6b6457e060405160405180910390a35050565b600081519050919050565b7f4e487b7100000000000000000000000000000000000000000000000000000000600052604160045260246000fd5b7f4e487b7100000000000000000000000000000000000000000000000000000000600052602260045260246000fd5b600060028204905060018216806200030757607f821691505b6020821081036200031d576200031c620002bf565b5b50919050565b60008190508160005260206000209050919050565b60006020601f8301049050919050565b600082821b905092915050565b600060088302620003877fffffffffffffffffffffffffffffffffffffffffffffffffffffffffffffffff8262000348565b62000393868362000348565b95508019841693508086168417925050509392505050565b6000819050919050565b6000819050919050565b6000620003e0620003da620003d484620003ab565b620003b5565b620003ab565b9050919050565b6000819050919050565b620003fc83620003bf565b620004146200040b82620003e7565b84845462000355565b825550505050565b600090565b6200042b6200041c565b62000438818484620003f1565b505050565b5b8181101562000460576200045460008262000421565b6001810190506200043e565b5050565b601f821115620004af57620004798162000323565b620004848462000338565b8101602085101562000494578190505b620004ac620004a38562000338565b8301826200043d565b50505b505050565b600082821c905092915050565b6000620004d460001984600802620004b4565b1980831691505092915050565b6000620004ef8383620004c1565b9150826002028217905092915050565b6200050a8262000285565b67ffffffffffffffff81111562000526576200052562000290565b5b620005328254620002ee565b6200053f82828562000464565b600060209050601f83116001811462000577576000841562000562578287015190505b6200056e8582620004e1565b865550620005de565b601f198416620005878662000323565b60005b82811015620005b1578489015182556001820191506020850194506020810190506200058a565b86831015620005d15784890151620005cd601f891682620004c1565b8355505b6001600288020188555050505b505050505050565b600073ffffffffffffffffffffffffffffffffffffffff82169050919050565b60006200061382620005e6565b9050919050565b620006258162000606565b82525050565b60006020820190506200064260008301846200061a565b92915050565b6127e980620006586000396000f3fe60806040526004361061011f5760003560e01c8063715018a6116100a0578063b88d4fde11610064578063b88d4fde146103be578063c87b56dd146103da578063d48ed1b814610417578063e985e9c514610454578063f2fde38b146104915761011f565b8063715018a6146102eb5780638da5cb5b146103025780638e5a86381461032d57806395d89b411461036a578063a22cb465146103955761011f565b806323b872dd116100e757806323b872dd1461021057806342842e0e1461022c578063632c18e8146102485780636352211e1461027157806370a08231146102ae5761011f565b806301ffc9a71461012457806306fdde0314610161578063081812fc1461018c578063095ea7b3146101c957806318160ddd146101e5575b600080fd5b34801561013057600080fd5b5061014b60048036038101906101469190611ab2565b6104ba565b6040516101589190611afa565b60405180910390f35b34801561016d57600080fd5b5061017661054c565b6040516101839190611ba5565b60405180910390f35b34801561019857600080fd5b506101b360048036038101906101ae9190611bfd565b6105de565b6040516101c09190611c6b565b60405180910390f35b6101e360048036038101906101de9190611cb2565b61063c565b005b3480156101f157600080fd5b506101fa61064c565b6040516102079190611d01565b60405180910390f35b61022a60048036038101906102259190611d1c565b610699565b005b61024660048036038101906102419190611d1c565b61095a565b005b34801561025457600080fd5b5061026f600480360381019061026a9190611f8a565b61097a565b005b34801561027d57600080fd5b5061029860048036038101906102939190611bfd565b610a94565b6040516102a59190611c6b565b60405180910390f35b3480156102ba57600080fd5b506102d560048036038101906102d09190612002565b610aa6565b6040516102e29190611d01565b60405180910390f35b3480156102f757600080fd5b50610300610b3d565b005b34801561030e57600080fd5b50610317610b51565b6040516103249190611c6b565b60405180910390f35b34801561033957600080fd5b50610354600480360381019061034f9190611bfd565b610b7b565b6040516103619190611ba5565b60405180910390f35b34801561037657600080fd5b5061037f610c68565b60405161038c9190611ba5565b60405180910390f35b3480156103a157600080fd5b506103bc60048036038101906103b7919061205b565b610cfa565b005b6103d860048036038101906103d3919061213c565b610e05565b005b3480156103e657600080fd5b5061040160048036038101906103fc9190611bfd565b610e57565b60405161040e9190611ba5565b60405180910390f35b34801561042357600080fd5b5061043e60048036038101906104399190611bfd565b610ed4565b60405161044b9190611ba5565b60405180910390f35b34801561046057600080fd5b5061047b600480360381019061047691906121bf565b610fc1565b6040516104889190611afa565b60405180910390f35b34801561049d57600080fd5b506104b860048036038101906104b39190612002565b611055565b005b60006301ffc9a760e01b827bffffffffffffffffffffffffffffffffffffffffffffffffffffffff1916148061051557506380ac58cd60e01b827bffffffffffffffffffffffffffffffffffffffffffffffffffffffff1916145b806105455750635b5e139f60e01b827bffffffffffffffffffffffffffffffffffffffffffffffffffffffff1916145b9050919050565b60606002805461055b9061222e565b80601f01602080910402602001604051908101604052809291908181526020018280546105879061222e565b80156105d45780601f106105a9576101008083540402835291602001916105d4565b820191906000526020600020905b8154815290600101906020018083116105b757829003601f168201915b5050505050905090565b60006105e9826110db565b6105fe576105fd63cf4700e460e01b611187565b5b6006600083815260200190815260200160002060000160009054906101000a900473ffffffffffffffffffffffffffffffffffffffff169050919050565b61064882826001611191565b5050565b60006106566112c0565b600154600054030390507fffffffffffffffffffffffffffffffffffffffffffffffffffffffffffffffff6106896112c5565b1461069657600854810190505b90565b60006106a4826112ed565b905073ffffffffffffffffffffffffffffffffffffffff8473ffffffffffffffffffffffffffffffffffffffff161693508373ffffffffffffffffffffffffffffffffffffffff168173ffffffffffffffffffffffffffffffffffffffff16146107195761071863a114810060e01b611187565b5b60008061072584611406565b9150915061073b818761073661142d565b611435565b610766576107508661074b61142d565b610fc1565b610765576107646359c896be60e01b611187565b5b5b6107738686866001611479565b801561077e57600082555b600560008773ffffffffffffffffffffffffffffffffffffffff1673ffffffffffffffffffffffffffffffffffffffff168152602001908152602001600020600081546001900391905081905550600560008673ffffffffffffffffffffffffffffffffffffffff1673ffffffffffffffffffffffffffffffffffffffff168152602001908152602001600020600081546001019190508190555061084c8561082888888761147f565b7c0200000000000000000000000000000000000000000000000000000000176114a7565b600460008681526020019081526020016000208190555060007c02000000000000000000000000000000000000000000000000000000008416036108d257600060018501905060006004600083815260200190815260200160002054036108d05760005481146108cf578360046000838152602001908152602001600020819055505b5b505b600073ffffffffffffffffffffffffffffffffffffffff8673ffffffffffffffffffffffffffffffffffffffff161690508481887fddf252ad1be2c89b69c2b068fc378daa952ba7f163c4a11628f55a4df523b3ef600080a4600081036109445761094363ea553b3460e01b611187565b5b61095187878760016114d2565b50505050505050565b61097583838360405180602001604052806000815250610e05565b505050565b6109826114d8565b80518251146109c6576040517f08c379a00000000000000000000000000000000000000000000000000000000081526004016109bd906122ab565b60405180910390fd5b60006109d061155f565b90506000835190506109e96109e3610b51565b82611568565b60005b81811015610a8d57848181518110610a0757610a066122cb565b5b6020026020010151600a60008386610a1f9190612329565b81526020019081526020016000209081610a399190612509565b50838181518110610a4d57610a4c6122cb565b5b6020026020010151600b60008386610a659190612329565b81526020019081526020016000209081610a7f9190612509565b5080806001019150506109ec565b5050505050565b6000610a9f826112ed565b9050919050565b60008073ffffffffffffffffffffffffffffffffffffffff168273ffffffffffffffffffffffffffffffffffffffff1603610aec57610aeb638f4eb60460e01b611187565b5b67ffffffffffffffff600560008473ffffffffffffffffffffffffffffffffffffffff1673ffffffffffffffffffffffffffffffffffffffff16815260200190815260200160002054169050919050565b610b456114d8565b610b4f6000611586565b565b6000600960009054906101000a900473ffffffffffffffffffffffffffffffffffffffff16905090565b6060610b86826110db565b610bc5576040517f08c379a0000000000000000000000000000000000000000000000000000000008152600401610bbc90612627565b60405180910390fd5b600b60008381526020019081526020016000208054610be39061222e565b80601f0160208091040260200160405190810160405280929190818152602001828054610c0f9061222e565b8015610c5c5780601f10610c3157610100808354040283529160200191610c5c565b820191906000526020600020905b815481529060010190602001808311610c3f57829003601f168201915b50505050509050919050565b606060038054610c779061222e565b80601f0160208091040260200160405190810160405280929190818152602001828054610ca39061222e565b8015610cf05780601f10610cc557610100808354040283529160200191610cf0565b820191906000526020600020905b815481529060010190602001808311610cd357829003601f168201915b5050505050905090565b8060076000610d0761142d565b73ffffffffffffffffffffffffffffffffffffffff1673ffffffffffffffffffffffffffffffffffffffff16815260200190815260200160002060008473ffffffffffffffffffffffffffffffffffffffff1673ffffffffffffffffffffffffffffffffffffffff16815260200190815260200160002060006101000a81548160ff0219169083151502179055508173ffffffffffffffffffffffffffffffffffffffff16610db461142d565b73ffffffffffffffffffffffffffffffffffffffff167f17307eab39ab6107e8899845ad3d59bd9653f200f220920489ca2b5937696c3183604051610df99190611afa565b60405180910390a35050565b610e10848484610699565b60008373ffffffffffffffffffffffffffffffffffffffff163b14610e5157610e3b8484848461164c565b610e5057610e4f63d1a57ed660e01b611187565b5b5b50505050565b6060610e62826110db565b610e7757610e7663a14c4b5060e01b611187565b5b6000610e8161177b565b90506000815103610ea15760405180602001604052806000815250610ecc565b80610eab84611792565b604051602001610ebc929190612683565b6040516020818303038152906040525b915050919050565b6060610edf826110db565b610f1e576040517f08c379a0000000000000000000000000000000000000000000000000000000008152600401610f1590612627565b60405180910390fd5b600a60008381526020019081526020016000208054610f3c9061222e565b80601f0160208091040260200160405190810160405280929190818152602001828054610f689061222e565b8015610fb55780601f10610f8a57610100808354040283529160200191610fb5565b820191906000526020600020905b815481529060010190602001808311610f9857829003601f168201915b50505050509050919050565b6000600760008473ffffffffffffffffffffffffffffffffffffffff1673ffffffffffffffffffffffffffffffffffffffff16815260200190815260200160002060008373ffffffffffffffffffffffffffffffffffffffff1673ffffffffffffffffffffffffffffffffffffffff16815260200190815260200160002060009054906101000a900460ff16905092915050565b61105d6114d8565b600073ffffffffffffffffffffffffffffffffffffffff168173ffffffffffffffffffffffffffffffffffffffff16036110cf5760006040517f1e4fbdf70000000000000000000000000000000000000000000000000000000081526004016110c69190611c6b565b60405180910390fd5b6110d881611586565b50565b6000816110e66112c0565b11611181576110f36112c5565b82111561111d5761111660046000848152602001908152602001600020546117e2565b9050611182565b6000548210156111805760005b60006004600085815260200190815260200160002054915081036111595782611152906126a7565b925061112a565b60007c01000000000000000000000000000000000000000000000000000000008216149150505b5b5b919050565b8060005260046000fd5b600061119c83610a94565b90508180156111de57508073ffffffffffffffffffffffffffffffffffffffff166111c561142d565b73ffffffffffffffffffffffffffffffffffffffff1614155b1561120a576111f4816111ef61142d565b610fc1565b6112095761120863cfb3b94260e01b611187565b5b5b836006600085815260200190815260200160002060000160006101000a81548173ffffffffffffffffffffffffffffffffffffffff021916908373ffffffffffffffffffffffffffffffffffffffff160217905550828473ffffffffffffffffffffffffffffffffffffffff168273ffffffffffffffffffffffffffffffffffffffff167f8c5be1e5ebec7d5bd14f71427d1e84f3dd0314c0f7b2291e5b200ac8c7c3b92560405160405180910390a450505050565b600090565b60007fffffffffffffffffffffffffffffffffffffffffffffffffffffffffffffffff905090565b6000816112f86112c0565b116113f0576004600083815260200190815260200160002054905061131b6112c5565b8211156113405761132b816117e2565b6114015761133f63df2d9b4260e01b611187565b5b600081036113c75760005482106113625761136163df2d9b4260e01b611187565b5b5b600460008360019003935083815260200190815260200160002054905060008103156113c25760007c010000000000000000000000000000000000000000000000000000000082160315611401576113c163df2d9b4260e01b611187565b5b611363565b60007c010000000000000000000000000000000000000000000000000000000082160315611401575b61140063df2d9b4260e01b611187565b5b919050565b60008060006006600085815260200190815260200160002090508092508254915050915091565b600033905090565b600073ffffffffffffffffffffffffffffffffffffffff8316925073ffffffffffffffffffffffffffffffffffffffff821691508382148383141790509392505050565b50505050565b60008060e883901c905060e8611496868684611823565b62ffffff16901b9150509392505050565b600073ffffffffffffffffffffffffffffffffffffffff83169250814260a01b178317905092915050565b50505050565b6114e061182c565b73ffffffffffffffffffffffffffffffffffffffff166114fe610b51565b73ffffffffffffffffffffffffffffffffffffffff161461155d5761152161182c565b6040517f118cdaa70000000000000000000000000000000000000000000000000000000081526004016115549190611c6b565b60405180910390fd5b565b60008054905090565b611582828260405180602001604052806000815250611834565b5050565b6000600960009054906101000a900473ffffffffffffffffffffffffffffffffffffffff16905081600960006101000a81548173ffffffffffffffffffffffffffffffffffffffff021916908373ffffffffffffffffffffffffffffffffffffffff1602179055508173ffffffffffffffffffffffffffffffffffffffff168173ffffffffffffffffffffffffffffffffffffffff167f8be0079c531659141344cd1fd0a4f28419497f9722a3daafe3b4186f6b6457e060405160405180910390a35050565b60008373ffffffffffffffffffffffffffffffffffffffff1663150b7a0261167261142d565b8786866040518563ffffffff1660e01b81526004016116949493929190612725565b6020604051808303816000875af19250505080156116d057506040513d601f19601f820116820180604052508101906116cd9190612786565b60015b611728573d8060008114611700576040519150601f19603f3d011682016040523d82523d6000602084013e611705565b606091505b5060008151036117205761171f63d1a57ed660e01b611187565b5b805181602001fd5b63150b7a0260e01b7bffffffffffffffffffffffffffffffffffffffffffffffffffffffff1916817bffffffffffffffffffffffffffffffffffffffffffffffffffffffff191614915050949350505050565b606060405180602001604052806000815250905090565b606060a060405101806040526020810391506000825281835b6001156117cd57600184039350600a81066030018453600a81049050806117ab575b50828103602084039350808452505050919050565b60007c0100000000000000000000000000000000000000000000000000000000821673ffffffffffffffffffffffffffffffffffffffff8316119050919050565b60009392505050565b600033905090565b61183e83836118b0565b60008373ffffffffffffffffffffffffffffffffffffffff163b146118ab57600080549050600083820390505b61187e600086838060010194508661164c565b6118935761189263d1a57ed660e01b611187565b5b81811061186b5781600054146118a857600080fd5b50505b505050565b600080549050600082036118cf576118ce63b562e8dd60e01b611187565b5b6118dc6000848385611479565b6118fc836118ed600086600061147f565b6118f685611a36565b176114a7565b6004600083815260200190815260200160002081905550600160406001901b178202600560008573ffffffffffffffffffffffffffffffffffffffff1673ffffffffffffffffffffffffffffffffffffffff16815260200190815260200160002060008282540192505081905550600073ffffffffffffffffffffffffffffffffffffffff8473ffffffffffffffffffffffffffffffffffffffff16169050600081036119b4576119b3632e07630060e01b611187565b5b6000838301905060008390506119c86112c5565b6001830311156119e3576119e26381647e3a60e01b611187565b5b5b808360007fddf252ad1be2c89b69c2b068fc378daa952ba7f163c4a11628f55a4df523b3ef600080a48181600101915081036119e45781600081905550505050611a3160008483856114d2565b505050565b60006001821460e11b9050919050565b6000604051905090565b600080fd5b600080fd5b60007fffffffff0000000000000000000000000000000000000000000000000000000082169050919050565b611a8f81611a5a565b8114611a9a57600080fd5b50565b600081359050611aac81611a86565b92915050565b600060208284031215611ac857611ac7611a50565b5b6000611ad684828501611a9d565b91505092915050565b60008115159050919050565b611af481611adf565b82525050565b6000602082019050611b0f6000830184611aeb565b92915050565b600081519050919050565b600082825260208201905092915050565b60005b83811015611b4f578082015181840152602081019050611b34565b60008484015250505050565b6000601f19601f8301169050919050565b6000611b7782611b15565b611b818185611b20565b9350611b91818560208601611b31565b611b9a81611b5b565b840191505092915050565b60006020820190508181036000830152611bbf8184611b6c565b905092915050565b6000819050919050565b611bda81611bc7565b8114611be557600080fd5b50565b600081359050611bf781611bd1565b92915050565b600060208284031215611c1357611c12611a50565b5b6000611c2184828501611be8565b91505092915050565b600073ffffffffffffffffffffffffffffffffffffffff82169050919050565b6000611c5582611c2a565b9050919050565b611c6581611c4a565b82525050565b6000602082019050611c806000830184611c5c565b92915050565b611c8f81611c4a565b8114611c9a57600080fd5b50565b600081359050611cac81611c86565b92915050565b60008060408385031215611cc957611cc8611a50565b5b6000611cd785828601611c9d565b9250506020611ce885828601611be8565b9150509250929050565b611cfb81611bc7565b82525050565b6000602082019050611d166000830184611cf2565b92915050565b600080600060608486031215611d3557611d34611a50565b5b6000611d4386828701611c9d565b9350506020611d5486828701611c9d565b9250506040611d6586828701611be8565b9150509250925092565b600080fd5b7f4e487b7100000000000000000000000000000000000000000000000000000000600052604160045260246000fd5b611dac82611b5b565b810181811067ffffffffffffffff82111715611dcb57611dca611d74565b5b80604052505050565b6000611dde611a46565b9050611dea8282611da3565b919050565b600067ffffffffffffffff821115611e0a57611e09611d74565b5b602082029050602081019050919050565b600080fd5b600080fd5b600067ffffffffffffffff821115611e4057611e3f611d74565b5b611e4982611b5b565b9050602081019050919050565b82818337600083830152505050565b6000611e78611e7384611e25565b611dd4565b905082815260208101848484011115611e9457611e93611e20565b5b611e9f848285611e56565b509392505050565b600082601f830112611ebc57611ebb611d6f565b5b8135611ecc848260208601611e65565b91505092915050565b6000611ee8611ee384611def565b611dd4565b90508083825260208201905060208402830185811115611f0b57611f0a611e1b565b5b835b81811015611f5257803567ffffffffffffffff811115611f3057611f2f611d6f565b5b808601611f3d8982611ea7565b85526020850194505050602081019050611f0d565b5050509392505050565b600082601f830112611f7157611f70611d6f565b5b8135611f81848260208601611ed5565b91505092915050565b60008060408385031215611fa157611fa0611a50565b5b600083013567ffffffffffffffff811115611fbf57611fbe611a55565b5b611fcb85828601611f5c565b925050602083013567ffffffffffffffff811115611fec57611feb611a55565b5b611ff885828601611f5c565b9150509250929050565b60006020828403121561201857612017611a50565b5b600061202684828501611c9d565b91505092915050565b61203881611adf565b811461204357600080fd5b50565b6000813590506120558161202f565b92915050565b6000806040838503121561207257612071611a50565b5b600061208085828601611c9d565b925050602061209185828601612046565b9150509250929050565b600067ffffffffffffffff8211156120b6576120b5611d74565b5b6120bf82611b5b565b9050602081019050919050565b60006120df6120da8461209b565b611dd4565b9050828152602081018484840111156120fb576120fa611e20565b5b612106848285611e56565b509392505050565b600082601f83011261212357612122611d6f565b5b81356121338482602086016120cc565b91505092915050565b6000806000806080858703121561215657612155611a50565b5b600061216487828801611c9d565b945050602061217587828801611c9d565b935050604061218687828801611be8565b925050606085013567ffffffffffffffff8111156121a7576121a6611a55565b5b6121b38782880161210e565b91505092959194509250565b600080604083850312156121d6576121d5611a50565b5b60006121e485828601611c9d565b92505060206121f585828601611c9d565b9150509250929050565b7f4e487b7100000000000000000000000000000000000000000000000000000000600052602260045260246000fd5b6000600282049050600182168061224657607f821691505b602082108103612259576122586121ff565b5b50919050565b7f496e76616c6964206d6574616461746100000000000000000000000000000000600082015250565b6000612295601083611b20565b91506122a08261225f565b602082019050919050565b600060208201905081810360008301526122c481612288565b9050919050565b7f4e487b7100000000000000000000000000000000000000000000000000000000600052603260045260246000fd5b7f4e487b7100000000000000000000000000000000000000000000000000000000600052601160045260246000fd5b600061233482611bc7565b915061233f83611bc7565b9250828201905080821115612357576123566122fa565b5b92915050565b60008190508160005260206000209050919050565b60006020601f8301049050919050565b600082821b905092915050565b6000600883026123bf7fffffffffffffffffffffffffffffffffffffffffffffffffffffffffffffffff82612382565b6123c98683612382565b95508019841693508086168417925050509392505050565b6000819050919050565b60006124066124016123fc84611bc7565b6123e1565b611bc7565b9050919050565b6000819050919050565b612420836123eb565b61243461242c8261240d565b84845461238f565b825550505050565b600090565b61244961243c565b612454818484612417565b505050565b5b818110156124785761246d600082612441565b60018101905061245a565b5050565b601f8211156124bd5761248e8161235d565b61249784612372565b810160208510156124a6578190505b6124ba6124b285612372565b830182612459565b50505b505050565b600082821c905092915050565b60006124e0600019846008026124c2565b1980831691505092915050565b60006124f983836124cf565b9150826002028217905092915050565b61251282611b15565b67ffffffffffffffff81111561252b5761252a611d74565b5b612535825461222e565b61254082828561247c565b600060209050601f8311600181146125735760008415612561578287015190505b61256b85826124ed565b8655506125d3565b601f1984166125818661235d565b60005b828110156125a957848901518255600182019150602085019450602081019050612584565b868310156125c657848901516125c2601f8916826124cf565b8355505b6001600288020188555050505b505050505050565b7f546f6b656e20646f65736e277420657869737400000000000000000000000000600082015250565b6000612611601383611b20565b915061261c826125db565b602082019050919050565b6000602082019050818103600083015261264081612604565b9050919050565b600081905092915050565b600061265d82611b15565b6126678185612647565b9350612677818560208601611b31565b80840191505092915050565b600061268f8285612652565b915061269b8284612652565b91508190509392505050565b60006126b282611bc7565b9150600082036126c5576126c46122fa565b5b600182039050919050565b600081519050919050565b600082825260208201905092915050565b60006126f7826126d0565b61270181856126db565b9350612711818560208601611b31565b61271a81611b5b565b840191505092915050565b600060808201905061273a6000830187611c5c565b6127476020830186611c5c565b6127546040830185611cf2565b818103606083015261276681846126ec565b905095945050505050565b60008151905061278081611a86565b92915050565b60006020828403121561279c5761279b611a50565b5b60006127aa84828501612771565b9150509291505056fea264697066735822122009e15888a53b22e7a0de7ef95fbf5347cd86847f96412f2db2b4c57284c202d664736f6c63430008180033",
  "linkReferences": {},
  "deployedLinkReferences": {}
}